:020000040800F2
:1000000068120020550100081F070008C5040008F9
:100010001D07000859020008890C000800000000B4
:10002000000000000000000000000000910A00082D
:100030005B02000800000000F5070008C90A00087C
:100040006F0100086F0100086F0100086F010008D0
:100050006F0100086F0100086F0100086F010008C0
:100060006F0100086F0100086F0100086F010008B0
:100070006F0100086F0100086F0100086F010008A0
:100080006F0100086F0100086F0100080000000008
:100090000000000000000000000000006F010008E8
:1000A0006F0100086F0100086F0100086F01000870
:1000B0006F0100086F0100086F0100081D050008AE
:1000C000C90400086F0100086F0100086F010008F3
:1000D0006F0100086F0100086F0100086F01000840
:1000E0006F0100086F0100086F01000800000000A8
:1000F0000000000000000000000000000000000000
:1001000000000000000000000000000000000000EF
:1001100000000000000000006F0100086F010008EF
:10012000DFF80CD000F05AF800480047BD14000872
:1001300068120020EFF30980704780F30988704748
:10014000EFF30880704780F30888704740BA704723
:10015000C0BA70470648804706480047FEE7FEE7FA
:10016000FEE7FEE7FEE7FEE7FEE7FEE7FEE7FEE767
:10017000210B0008210100082DE9F05F0546002051
:1001800092469B4688460646814640241BE0284608
:1001900041464746224600F042F852465B46801AE6
:1001A000994110D310461946224600F029F82D1A1D
:1001B00067EB01084F4622460120002100F020F89D
:1001C00017EB00094E41201EA4F10104DFDC484674
:1001D00031462A464346BDE8F09F0000064C074DD5
:1001E00006E0E06840F0010394E807009847103407
:1001F000AC42F6D3FFF798FF5C1500087C150008A9
:10020000202A04DB203A00FA02F1002070479140D6
:10021000C2F1200320FA03F3194390407047202ACB
:1002200004DB203A21FA02F00021704721FA02F3A0
:10023000D040C2F1200291400843194670470000A7
:100240000149085A70470000006C0040014A1150F3
:1002500070470000006C0040FEE7704770B5044630
:100260000D46352000F04EF8A4F10064A00A4FF0CE
:10027000006101EB8026294608A000F0B9FD0024AA
:1002800005E000BF06EB842000F042F8641CAC429D
:10029000F8D3BDE8704003A000F0AABD0D0A2564A4
:1002A000000000003E332E310000000070B50DA0AC
:1002B00000F09EFD00F082FB044600F08FFB054637
:1002C00001462046FFF7CAFF074900202A4608706A
:1002D0000649012048702146BDE8704004A000F0A6
:1002E00087BD000033000000010000201000002046
:1002F0000D0A453A412830782530385829502825AC
:10030000642900000149C8607047000000200240D5
:1003100070B505464FF43026304600F051F80428F9
:1003200011D1094C206940F002002061656120690B
:1003300040F040002061304600F042F8216941F66B
:10034000FD721140216170BD002002400849042067
:10035000CA68D20701D001207047CA68520701D588
:1003600002207047C968C906FBD50320704700000A
:1003700000200240F0B505464FF400570E463846BF
:1003800000F01EF804280CD1064C206940F0010052
:1003900020612E80384600F013F82169BA1E114002
:1003A0002161F0BD00200240034802494160034939
:1003B000416070472301674500200240AB89EFCDC3
:1003C00000B50346FFF7C2FF03E000BFFFF7BEFF23
:1003D0005B1E012803D0002B00D1052000BD002B9F
:1003E000F4D1FAE7F8B54020ADF8000003240B4E35
:1003F0008DF802401C258DF803506946304600F008
:100400000FF88020ADF800008DF802408DF8035001
:100410006946304600F004F8F8BD0000000C0140C9
:100420002DE9F041CB78002503F00F02DB0601D562
:100430008B781A430B884FF00F0813F0FF0F4FF023
:10044000010C1CD0D0F800400E880CFA05F31E40B9
:100450009E4210D1AF0008FA07F624EA060602FA17
:1004600007F43443CE78282E02D0482E02D002E082
:10047000436100E003616D1C082DE5D304600B8827
:10048000FF2B1DD94468002505F108060CFA06F378
:100490000E881E409E420FD1AF0008FA07F624EAEC
:1004A000060602FA07F43443CE78282E00D14361C1
:1004B000CE78482E00D103616D1C082DE4D3446032
:1004C000BDE8F081FEE7000070B5104D104C2946E4
:1004D000204600F096F848B12946204600F05EF824
:1004E0000C49002008800C49012008704FF00125BC
:1004F0002946204600F085F8002805D029462046E8
:10050000BDE8704000F04AB870BD00000004000172
:1005100000540040120000200000002070B5194D6A
:10052000284600F07EF8184A184C811A90421DD0D7
:100530000BDC102808D10121284600F032F80020F9
:10054000608013490120087070BDA1F58021114819
:10055000403901D00429F7D121880844491C218061
:1005600001782846BDE8704000F0C9B8284600F080
:10057000C3F86188084A02EB4102491C618010807F
:1005800070BD000000540040400002001200002036
:100590000000002044000020F4040020C9438182B0
:1005A00070470029018802D041F0010101E021F0EB
:1005B0000101018070470000094910B588424FF0E1
:1005C000010101D14C0501E04FF48004204600F008
:1005D0001FF92046BDE81040002100F019B90000C5
:1005E0000054004000220B0F21F07F4101D0143055
:1005F00001E0090C18300068084200D001221046C2
:10060000704710B58388002201F0E064808A03EA15
:10061000144321F07F41084201D003B1012210466A
:1006200010BD818A008B41EA004121F07F40704774
:10063000002A828801D00A4300E08A438280704702
:1006400070B50446808886B00D4620F03F066846A7
:1006500000F002F926490298B0FBF1F189B20E438D
:10066000A680228822F001022280224B2A689A4228
:100670001CD85200B0FBF2F080B2042800D2042053
:10068000491C2184A083208840F00100208021881B
:100690004FF6F5300140A8886A891043084320804E
:1006A000A88929890843208106B070BDEB88A3F58D
:1006B0003F46FF3E05D102EB4202B0FBF2F080B2B2
:1006C00008E002EBC20303EB0212B0FBF2F080B2CF
:1006D00040F48040020501D140F001004FF49672D1
:1006E00051434FF47A72B1FBF2F140F40040C7E796
:1006F00040420F00A0860100008AC0B2704701820C
:10070000704700000146044800B5006800F0C1F9D8
:10071000401C00D0012000BD18000020FEE77047FB
:1007200070B500214FF0006000F05AF84FF4A0605F
:1007300000F04CF80B4C1F20002520706570022043
:10074000A0700126E670204600F00EF820202070F0
:1007500065700320A070E6702046BDE8704000F090
:1007600003B800000C00002070B50F21C478027897
:1007700001234FF0E026DCB1124C246804F4E0645D
:10078000C4F5E064250AC5F10404E9404578A540B4
:1007900084780C402C4321010B4C1155007800F05B
:1007A0001F018B40400906EB8000C0F8003170BD8E
:1007B00002F01F008340500906EB8000C0F8803132
:1007C00070BD00000CED00E000E400E002490843C9
:1007D00002490860704700000000FA050CED00E0D7
:1007E000024A1140014302480160704780FFFF1F29
:1007F00008ED00E070470000044A0029D16901D0EB
:10080000014300E08143D1617047000000100240C5
:10081000044A0029116901D0014300E081431161BC
:100820007047000000100240044A0029916901D07D
:10083000014300E0814391617047000000100240D5
:1008400010B501214805FFF7D7FF0121BDE8104091
:100850000820FFF7E9BF000030B524494A68244B5F
:1008600012F00C0204D0234C042A03D0082A03D02F
:10087000036017E0046015E04A684B6802F47012E8
:100880004FF0020513F4803F05EB924207D0CB6A8C
:1008900003F00F035B1CB4FBF3F35343E8E7164B81
:1008A0005A4302604A68154B02F0F00212099C5C40
:1008B0000268E24042604C6804F4E064240A1C5D73
:1008C00022FA04F484604C6804F46054E40A1B5D6A
:1008D000DA40C2604968094B01F44041890B1B1F93
:1008E000595CB2FBF1F1016130BD00000010024023
:1008F00000127A00001BB70000093D002000002014
:100900000246002053090949012B0BD0022B0BD0C2
:10091000D1F8241002F01F02012393400B4200D0B3
:10092000012070470968F5E7096AF3E70010024003
:100930000248406800F00C007047000000100240C0
:10094000034A516821F0F0010143516070470000F3
:100950000010024001490860704700000000424258
:10096000034A516821F4E06101435160704700007F
:100970000010024003494A6822F4605242EAC00073
:100980004860704700100240014908667047000047
:1009900000004242034A5368084323F47413184387
:1009A0005060704700100240034A516821F0030173
:1009B000014351607047000000100240064810B526
:1009C0004488C18802898388200640EA034042EABD
:1009D0000121084310BD0000F404002003494889A8
:1009E0008989000641EA104070470000F4040020A5
:1009F0002DE9F0411B4801880029FCD11A4D4FF424
:100A00000076002231462846FFF712FEFFF7D6FF98
:100A1000164A002410B1012805D008E0AA20107061
:100A20005520507003E01248417811704470114F06
:100A300028463946FFF7D6FD0028F9D00122314675
:100A40002846FFF7F5FD0848183000880A48018855
:100A50000029FCD109480470BDE8F04108A000F06D
:100A6000C7B90000140000200054004044000020DA
:100A700010000020020000101200002001000020E1
:100A80003100000001480088C0B27047F404002023
:100A900070474FF00043DA17884202D14FF0000050
:100AA000704704D2A1EB0000984205D302E0401A3F
:100AB000984201D2012070471046704701480068F3
:100AC0007047000018000020AFF300800248016862
:100AD000491C0160704700001800002010B50D4847
:100AE000002404600C48FFF7B7FE0B4864214068FF
:100AF000B0FBF1F0B0F1807F0BD220F07F414FF0DE
:100B0000E020491E4161054AF021117084610721EE
:100B1000016110BD18000020540E002023ED00E0FC
:100B20001E4810B5016841F00101016041681C4A8E
:100B30001140416001681B4A11400160016821F4C5
:100B400080210160416821F4FE0141604FF41F01E2
:100B500081600021C1620120FFF7FCFE0020FFF749
:100B6000EFFE0020FFF706FF4FF48060FFF7F8FE6E
:100B70004FF480110020FFF70DFF0120FFF704FF65
:100B80003920FFF7BDFE0028FAD00220FFF70CFF46
:100B9000FFF7CEFE0828FBD110BD00000010024078
:100BA0000000FFF8FFFFF6FE0029818902D041F422
:100BB000005101E021F4005181817047024600207C
:100BC00012880A4200D001207047000030B5044668
:100BD000008A85B00D464CF6FF710840E988014354
:100BE0002182A1894EF6F3100140A8882A8910437A
:100BF0006A890A431043A081A08A4FF6FF4108404A
:100C0000A9890143A1826846FFF726FE1B4884425A
:100C100001D1039800E00298A1890904002900EBA2
:100C2000C00101EB0010296802DA4FEA410101E03E
:100C30004FEA8101B0FBF1F06422B0FBF2F14FEA20
:100C400001114FEA11136FF018056B4300EB83009D
:100C5000A3891D044FF0320306D503EBC000B0FB9F
:100C6000F2F000F0070005E003EB0010B0FBF2F03B
:100C700000F00F000843208105B030BD003801406E
:100C8000C1F3080181807047FEE7000010B53021F4
:100C90000348FFF7E3FA03490020087010BD000085
:100CA00000400008010000202DE9F05FDFF8F4B0FB
:100CB0003D49DFF8F8804FF480304FF000090A8892
:100CC00012B1401EFBD10DE060B1FFF777FE064682
:100CD000FFF784FE04464FF0010AB0F5806F0AD892
:100CE00001200CE032A000F083F88BF8009088F827
:100CF0000190BDE8F09FA00504D00AEB9420B10557
:100D000002D005E0A00AFAE781B23046FFF7A6FA62
:100D10000420294D04F108010CE000BF05EB80031D
:100D20005A8812025A8035F82030134325F82030B3
:100D3000401C80B2B0EB510FF0D3002709E000BF98
:100D400005EB8700018A06EB4700FFF713FB7F1CCA
:100D5000BFB2B7EB540FF3D398F80000474698B1F1
:100D6000314616A000F044F81AA000F041F8002522
:100D700005E0715D18A000F03BF86D1CADB2A54216
:100D8000F7D314A000F034F81548018815A000F03E
:100D90002FF88BF8009087F801A0BDE8F05F13A052
:100DA00000F026B8010000201400002010000020F0
:100DB0000D0A575F45310000F40400200D0A41641C
:100DC000645F466C617368203D2030782530385868
:100DD000000000000D0A00002530325820000000FD
:100DE0000040000820253034582000003200000068
:100DF0000FB4054B10B503A9044A029800F018F887
:100E000010BC5DF814FB0000A9120008300000209F
:100E100002E008C8121F08C1002AFAD170477047C3
:100E2000002001E001C1121F002AFBD17047000021
:100E30002DE9FF4F8DB005460F460026E9E1252834
:100E400079D100246D1CF74AA246A14601212B78D6
:100E5000203B01FA03F0104202D004436D1CF6E778
:100E600028782A2810D06FF02F022878A0F13001BE
:100E7000092915D80AEB8A0102EB410144F002046A
:100E800000EB010A6D1CF0E757F804ABBAF1000F54
:100E900003DA44F40054CAF1000A44F002046D1C61
:100EA00028782E2817D115F8010F44F004042A28B9
:100EB0000ED06FF02F022878A0F1300109290AD84E
:100EC00009EB890102EB410100EB01096D1CF2E71E
:100ED00057F8049B6D1C28786C280FD006DC4C2832
:100EE00017D068280DD06A2814D104E0742810D0D7
:100EF0007A280FD10DE044F400140AE044F4801481
:100F000001E044F440146978814202D16D1C04F57B
:100F100080146D1C95F800C0BCF16E0F2AD012DC55
:100F2000BCF1630F3CD007DCBCF1000F76D0BCF104
:100F3000580F19D1A7E018E0BCF1640F6FD0BCF1D5
:100F4000690F11D16BE0BCF1730F32D006DCBCF13C
:100F50006F0F71D0BCF1700F06D196E0BCF1750F28
:100F60006BD0BCF1780F69D06046DDE90F12904775
:100F7000761C4DE1C4F30250022806D003280AD0A3
:100F8000042801CF0AD0066042E101CF4FEAE671A2
:100F9000C0E900613CE101CF068039E1067037E12C
:100FA00001CF8DF8000000208DF80100EB460120F4
:100FB00003E057F804BB4FF0FF3061074FF000012A
:100FC00002D40DE008F10101884649450FDA804559
:100FD000F8DB1BF808100029F4D108E008F1010142
:100FE00088468142FADB1BF808100029F6D1DDE9BA
:100FF0000F23AAEB08008146214600F03CF930445B
:1010000000EB080604E0DDE90F121BF8010B904726
:10101000B8F10108F7D221464846F4E0FDE00A2184
:10102000C4F302524FF0000B0891022A07D001CFFF
:10103000C117032A09D00AE030E022E023E0FF1DB7
:1010400027F00707F7E8020105E000B2C117042AFC
:1010500001D140B2C117002906DA0023D0EB03000A
:1010600063EB01012D2202E0220504D52B228DF82D
:101070002420012203E0E20701D02022F7E7904676
:101080004EE00A210BE0102109E010214FF0000B87
:1010900044F004044FF00809089103E008214FF0E0
:1010A000000B0891C4F30252022A04D001CF0021A0
:1010B000032A06D007E0FF1D27F00707F7E8020123
:1010C00005E080B20021042A01D1C0B200214FF016
:1010D0000008220724D5BCF1700F29D0089B83F0AB
:1010E000100353EA0B0309D150EA010206D0302263
:1010F0008DF824208DF825C002229046089B83F0AD
:10110000080353EA0B030BD150EA010201D1620735
:1011100006D530228DF824204FF00108A9F10109ED
:10112000BCF1580F09D040A20B9208AA0A9211E014
:1011300040228DF824200122DFE740A2F4E75B463D
:10114000089AFFF719F80B9B9B5C0A9AA2F101021F
:101150000A92137050EA0102F1D10A98ADEB000037
:1011600000F1200B600702D524F4803401E04FF039
:101170000109D94502DDA9EB0B0000E0002000EBDE
:101180000B0141440890AAEB01000B90E00306D448
:10119000DDE90F2321460B9800F06DF806444FF06F
:1011A00000090DF1240A07E0DDE90F121AF8090021
:1011B0009047761C09F10109C145F5DBE0030CD528
:1011C000DDE90F2321460B9800F055F8064404E0B2
:1011D000DDE90F1230209047761C0899481E0890D0
:1011E0000029F5DC08E00A980A990078491C0A9160
:1011F000DDE90F129047761CBBF10001ABF1010B4A
:10120000F1DC0B982146DDE90F2300F021F80644BC
:101210006D1C287800287FF412AE11B03046BDE86E
:10122000F08F000009280100303132333435363771
:101230003839616263646566000000003031323322
:1012400034353637383941424344454600000000C2
:101250002DE9F0410446002517461E46880405D4B2
:1012600006E039462020B04705F10105641EF8D597
:101270002846BDE8F0812DE9F0410446002590465E
:101280001E46C80301D5302700E02027880405D575
:1012900006E041463846B04705F10105641EF8D521
:1012A0002846BDE8F081000070B5074D0446C1B284
:1012B0002846FFF7E5FC40212846FFF77FFC002881
:1012C000F9D0204670BD00000038014010B5FFF78E
:1012D0006BF8FFF725FA0B4C2046FFF76DF90A492A
:1012E000002088804BF6FF70C880602008812015A0
:1012F000488100018881054808602046BDE810400B
:10130000FFF79EB90054004034000020801A060008
:101310001C4E1D4C1D4D4FF4C0684FF480790227C0
:10132000012241463046FFF783F901224946304603
:10133000FFF77EF92078012803D1FFF7A3FB607047
:1013400027706078202817D006DC032811D00628E3
:10135000E6D1FFF7A9FCE3E7602810D07728DFD1BA
:101360006868A06060602868FEF7EDFE60688047EE
:10137000D6E7FFF73DFBD3E7FEF798FFD0E7FFF78F
:1013800085FCCDE70054004000000020004000082C
:1013900070B50446FFF792FB04EBC40101EB0411A6
:1013A000224C00EB81050020A07036E0204E012287
:1013B0004FF4C0613046FFF73BF90122110230467D
:1013C000FFF736F92078012804D1FFF75BFB607046
:1013D000022020706078202810D004DC032807D079
:1013E00006281AD107E060280BD0772815D10BE02A
:1013F000FFF7FEFA11E0FFF757FC0EE0FEF756FF8D
:101400000BE0FFF743FC08E00A494868A060606011
:101410000868FEF798FE606880472846FFF772F973
:101420000028C3D0A0780128C0D070BD00000020E3
:10143000005400400040000810B586B0012105208E
:10144000FFF7F2F901218803FFF7EEF903208DF889
:1014500012004FF48060ADF810000420154C8DF898
:10146000130004A92046FEF7DBFF6015ADF810005D
:1014700018208DF8130004A92046FEF7D1FF4FF481
:10148000E13000900020ADF80400ADF80600ADF8A2
:101490000800ADF80C000C20074CADF80A006946B6
:1014A0002046FFF793FB01212046FFF77DFB06B0A6
:1014B00010BD0000000801400038014010B5FFF7E2
:1014C000BFF9FEF78FFFFFF7B7FF11A213A116A018
:1014D000FFF78EFCFFF7FAFEFFF700FB0420FEF794
:1014E000AFFEAA280ED00320FFF752FF194841682B
:1014F000194CA16061600068FEF725FE60688047B6
:10150000002010BD00210420FEF7A0FEFFF700FF21
:1015100030393A33333A3038000000004D617220E0
:1015200031372032303134000D0A41494F2D5354A8
:101530004D2D4941503A493243204043565445527B
:101540002E5365654361726520446174653A257365
:101550002025730000400008000000207C150008D2
:101560000000002034000000100E0008B015000834
:101570003400002034120000200E0008000000009B
:10158000000000000000000000000000000000005B
:101590000000000000000000020406080000000037
:1015A0000102030401020304060708090000000009
:0400000508000121CD
:00000001FF
