:020000040800F2
:10400000E80A0020D1410008B15200086D4C0008B8
:10401000D5510008D3470008595D00080000000092
:10402000000000000000000000000000D95500085A
:104030000B490008000000004D5300080957000814
:10404000EB410008EB410008EB410008EB410008A0
:10405000EB410008EB410008EB410008EB41000890
:10406000EB410008EB410008EB410008EB41000880
:10407000EB410008EB410008EB410008EB41000870
:10408000EB410008EB410008EB4100080000000094
:10409000000000000000000000000000EB410008EC
:1040A000EB410008EB410008EB410008EB41000840
:1040B000EB410008EB410008EB410008CD4C000843
:1040C000714C0008994E00083D4E0008EB41000875
:1040D000EB410008215B0008EB410008EB410008C0
:1040E000EB410008EB410008EB4100080000000034
:1040F00000000000000000000000000000000000C0
:1041000000000000000000000000000000000000AF
:104110000000000000000000EB410008EB41000837
:1041200000F002F800F044F80AA090E8000C824485
:104130008344AAF10107DA4501D100F039F8AFF262
:10414000090EBAE80F0013F0010F18BFFB1A43F075
:10415000010318476821000088210000103A24BF9D
:1041600078C878C1FAD8520724BF30C830C144BFDC
:1041700004680C607047000000230024002500261E
:10418000103A28BF78C1FBD8520728BF30C148BFBA
:104190000B607047642900F07380732900F0DD81A3
:1041A000002070471FB502F069F81FBD10B510BDA3
:1041B00000F02AFA1146FFF7F5FF01F089FF00F041
:1041C00048FA03B4FFF7F2FF03BC01F010FE000051
:1041D0000948804709480047FEE7FEE7FEE7FEE79B
:1041E000FEE7FEE7FEE7FEE7FEE7FEE704480549D7
:1041F000054A064B704700008D5800082141000811
:10420000E8040020E80A0020E8060020E806002074
:10421000704700000FB4044910B503AA029800F0DB
:10422000A1F910BC5DF814FB0000002070B5054634
:104230000C46012A05D02868800600D5EA690023CB
:1042400002E0012305E05B1C934202D2E05C0028FF
:10425000F9D1A869E618C01AA861286A184428622A
:104260002846AFF3008004E0D5E9012114F8010BE2
:104270009047B442F8D32846AFF3008070BD0000E9
:104280002DE9F0410746002510687529394616A426
:1042900011D0AFF30080002803DAC0F1000013A4AE
:1042A00007E039688A0701D511A402E0490704D55F
:1042B00010A4012501E0AFF3008000210A2307F1DB
:1042C000240607E0B0FBF3F203FB12003030705419
:1042D0001046491C0028F5D12B4622463846BDE839
:1042E000F04100F0CCB80000000000002D000000FC
:1042F0002B000000200000002DE9F05F04468946F5
:104300004FF0000ADFF828B1FB44C0F820A0204697
:10431000E168884700287CD0252806D0D4E901210F
:104320009047206A401C2062F1E700255F46204646
:10433000E16888472028064608DB312E06D207EBC5
:10434000060010F8200C08B10543F0E7A80701D5D6
:1043500025F00405C4F81CA00027C4F818A02A2ED4
:1043600009D0304601F03CFD38B304EB8708303EFD
:10437000C8F8186019E059F8041B204604EB8702BE
:104380009161E1688847012F064618D1E06900284D
:1043900020DA25F020051DE0D8F8180000EB800099
:1043A00006EB40003038C8F818002046E16888471E
:1043B000064601F015FD0028EED1012F0AD02E2E61
:1043C00008D12046E16888477F1C0646022F45F049
:1043D0002005C4DBA069002803DA404245F001054E
:1043E000A061E80701D025F0100596B1A6F14100C3
:1043F000192802D8203645F400654A463146204641
:1044000025604D46FFF7C6FE60B1012807D0ED1DBF
:1044100000E009E025F0070000F1080977E705F161
:10442000040974E7304679E7206ABDE8F09F000090
:104430009E1F00004FF000020429C0F0128010F00F
:10444000030C00F0A380CCF1040CBCF1020F18BFE8
:1044500000F8012BA8BF20F8022BA1EB0C0100F003
:1044600095B85FEAC17C24BF00F8012B00F8012B4E
:1044700048BF00F8012B70477047704770472DE91F
:10448000F0470D4604469246994600F1240801681B
:10449000880604D5E06921F01001216000E00120C8
:1044A000A84202DDA0EB050700E00027A16907EBA9
:1044B000050202EB0900A1EB0000A0612068C00624
:1044C00002D42046AFF30080002608E0D4E90121A1
:1044D0001AF806009047206A401C761C20624E4560
:1044E000F4DB2068C0060AD52046AFF3008006E062
:1044F000D4E9012130209047206A401C2062381EF8
:10450000A7F10107F4DC07E0D4E9012118F8050060
:104510009047206A401C2062281EA5F10105F3DCAB
:104520002046AFF300802068000602D50220BDE8D7
:10453000F0870120FBE710B5436913B1AFF30080AA
:1045400001E0FFF773FE012010BD126800F12401A5
:104550000A7000224A700122EDE711684FF0FF3225
:10456000E9E70000074B70B50C467B4400F039F8D2
:104570000546204601F066FC10B14FF0FF3070BDDB
:10458000284670BDDD1800004FF0000200B513464C
:1045900094469646203922BFA0E80C50A0E80C5063
:1045A000B1F12001BFF4F7AF090728BFA0E80C5014
:1045B00048BF0CC05DF804EB890028BF40F8042B0D
:1045C00008BF704748BF20F8022B11F0804F18BF7A
:1045D00000F8012B7047000001694A1C026108784D
:1045E000704700B58FB0CDE9013100210591054933
:1045F0007944CDE9031011466846FFF77DFE0FB000
:1046000000BD0000E5FFFFFF754600F029F8AE464B
:1046100005006946534620F00700854618B020B5CE
:10462000FFF7E4FDBDE820404FF000064FF0000723
:104630004FF000084FF0000B21F00701AC46ACE84A
:10464000C009ACE8C009ACE8C009ACE8C0098D46B7
:1046500070470446AFF300802046FFF7B2FD00002C
:1046600000487047840400200048704788040020F8
:104670000029816802D041F0010101E021F001012F
:10468000816070470029816802D041F4807101E0A7
:1046900021F48071816070470146002089684907D4
:1046A00000D501207047014600208968090700D520
:1046B0000120704710B542680E4B0C791A400B6808
:1046C00042EA04221343436083680B4A1340D1E952
:1046D000024222434C7943EA44031A438260C26A8D
:1046E000097C22F47002491EC9B242EA0151C1623A
:1046F00010BD0000FFFEF0FFFDF7F1FF70B50725CC
:1047000009290AD9C468A1F10A0606EB4606B54094
:10471000AC43B3401C43C46007E0046901EB4106AD
:10472000B540AC43B3401C4304611F23072A09D2A0
:10473000446B521E02EB820293409C4391400C4317
:10474000446370BD0D2A09D2046BD21F02EB8202B2
:1047500093409C4391400C43046370BDC46A0D3A7E
:1047600002EB820293409C4391400C43C46270BDB3
:10477000816841F00801816070470029816802D09A
:1047800041F4A00101E021F4A0018160704781683B
:1047900041F00401816070470248018841F0010145
:1047A00001807047346C00400149085A704700008E
:1047B000006C0040014A115070470000006C00403E
:1047C00010B501F0CBFA01F02FF8BDE8104001F070
:1047D00087B8FEE70029016802D041F0010102E03C
:1047E0004FF6FE72114001607047000001684FF6FD
:1047F000FE72114001600021016041608160C16072
:104800003149314A0839904203D1486840F00F00DD
:1048100006E02D4A1432904204D1486840F0F0007E
:1048200048607047284A2832904203D1486840F4D3
:104830007060F5E7244A3C32904203D1486840F466
:104840007040EDE7204A5032904203D1486840F46E
:104850007020E5E71C4A6432904203D1486840F476
:104860007000DDE7184A7832904203D1486840F082
:104870007060D5E7154A111F904203D1086840F0D7
:104880000F0006E0114A1432904204D1086840F04B
:10489000F000086070470D4A2832904203D1086842
:1048A00040F47060F5E7094A3C32904203D1086851
:1048B00040F47040EDE7054A50329042EAD1086872
:1048C00040F47020E5E700000800024008040240C0
:1048D00030B5036847F6F07293430C6A8A68224346
:1048E000D1E904452C4322438C692243CC692243FD
:1048F0004C6A22438C6A22431A430260CA684260AF
:104900000A6882604968C16030BD704710B51248BE
:1049100000891249114A49785268082916D2DFE8FD
:1049200001F008040A060C0E101210800CE05080F2
:104930000AE0908008E0D08006E0108104E0508119
:1049400002E0908100E0D081012010BD04A0FFF7BB
:1049500061FC4FF0FF3010BD9002002030000020BD
:104960000D0A4543475F446574656374446174612F
:1049700053617665206572726F72203D2025640058
:1049800010B50D4CE06800F0C7FB78B1FFF7BEFF33
:10499000607807280ED0401C5FFA80F000F082F8A3
:1049A000642001F059FAE1680844E060BDE8104075
:1049B00000F036B80120F1E73000002038B5154985
:1049C000002008700121082000F0FAFC4FF400409C
:1049D000ADF8000003208DF8020010200E4C8DF879
:1049E00003006946204600F0C7F84FF48040ADF858
:1049F00000006946204600F0BFF86014ADF80000E2
:104A00006946204600F0B8F8BDE83840012000F0C3
:104A100049B8000030000020000C01407047000041
:104A200010B51F4CA06800F077FB002837D0FF209E
:104A300020706068008800F08BFB18B1207820F0AF
:104A4000020020706068808800F082FB18B1207836
:104A500020F0010020706068C08800F079FB18B178
:104A6000207820F0040020706068008900F070FB5E
:104A700018B1207820F01000207060684088A0F500
:104A8000A160B0F58E7F03D8207820F00800207058
:104A90004FF4FA7001F0E0F9A1680844A06010BD7D
:104AA000300000202DE9F0414FF400510546284C1C
:104AB0004E008F00082D43D2DFE805F00C041508E6
:104AC000222A323A204600F0A9F81CE0204600F0E5
:104AD000A5F820E0204600F0A1F824E03946204661
:104AE00000F09CF807E0204600F098F823E03946F3
:104AF000204600F095F8174845700120BDE8F08188
:104B0000204600F08DF83146204600F087F8E5E7B2
:104B1000204600F085F83146204600F07FF8E6E7B1
:104B2000204600F07DF83146204600F079F8D5E7C0
:104B3000204600F075F83146204600F071F8D6E7BF
:104B4000294605A0FFF766FB4FF0FF30D6E70000CF
:104B5000000C0140300000200D0A4543475F5365BB
:104B60006C6563744368616E6E656C206572726F0C
:104B700072203D20256400002DE9F041CB7800250E
:104B800003F00F02DB0601D58B781A430B884FF038
:104B90000F0813F0FF0F4FF0010C1CD0D0F80040AD
:104BA0000E880CFA05F31E409E4210D1AF0008FAA1
:104BB00007F624EA060602FA07F43443CE78282ED4
:104BC00002D0482E02D002E0436100E003616D1C78
:104BD000082DE5D304600B88FF2B1DD94468002500
:104BE00005F108060CFA06F30E881E409E420FD10E
:104BF000AF0008FA07F624EA060602FA07F434437F
:104C0000CE78282E00D14361CE78482E00D10361A2
:104C10006D1C082DE4D34460BDE8F081416170470C
:104C20000161704770B5104B17E000BF00F00F0432
:104C300011F8016B33F81450040906F00F006C40B2
:104C400033F81000604000F00F040509300933F814
:104C5000144033F81000654068401400A2F10102CE
:104C600092B2E3D170BD00008A620008FEE7000046
:104C7000154810B540680468204600F0DBF941048F
:104C800003D5A18A21F48041A182C10403D5A18A60
:104C900021F48051A182010503D5A18A21F400618C
:104CA000A182410503D5A18A21F48061A1828105F9
:104CB00003D5A18A21F40071A182C00503D5A08A81
:104CC00020F48070A08210BD400000202DE9F0414A
:104CD000564844682768384600F0ACF90546C003DA
:104CE0004FF000065DD54FF00110A84307D1012118
:104CF000384600F06BF9217A384600F00AFA4C4841
:104D0000A84322D1A089012810D02069A8B1384633
:104D100000F0FCF9226AA1698854206A401C00F066
:104D20007F0020622069401E20610EE0A68160891C
:104D3000C1B2384600F0EDF907E00021384600F036
:104D400045F90121384600F06BF93A48A84315D1DE
:104D5000A089012814D02069D0B1E1696069415C63
:104D6000384600F0D6F9E0690321401CB0FBF1F2AF
:104D700001FB1200E0612069401E2061BDE8F08166
:104D8000A6816089C1B23846BDE8F04100F0C1B9E2
:104D9000B88A4007F2D53846BDE8F041012100F05D
:104DA0003FB9A80701D52662E66168060AD53846EC
:104DB00000F0ACF9226AA1698854206A401C00F016
:104DC0007F0020621C48A8430BD1E1696069415C07
:104DD000384600F09EF9E06900F1010000F07F0024
:104DE000E061E806CAD50121384600F0F9F8206AEA
:104DF000C0B1A0690178CA0702D001F0E5F811E05E
:104E00004278490872B106290CD2DFE801F00B0B99
:104E10000B030B080321801C00F03AFA02E0801C0F
:104E200000F0F8FF0120E071A8E70000400000203A
:104E3000400001008000050080000400154810B506
:104E400080680468204600F0F5F8410403D5A18A83
:104E500021F48041A182C10403D5A18A21F48051AB
:104E6000A182010503D5A18A21F40061A182410537
:104E700003D5A18A21F48061A182810503D5A18A8D
:104E800021F40071A182C00503D5A08A20F48070AE
:104E9000A08210BD400000202DE9F0414748846801
:104EA0002768384600F0C6F80546C0034FF00006F4
:104EB0005AD54FF00110A84307D10121384600F020
:104EC00085F8217A384600F024F93D48A84322D1DC
:104ED000A089012810D02069A8B1384600F016F941
:104EE000226AA1698854206A401C00F07F00206279
:104EF0002069401E20610EE0A6816089C1B238465B
:104F000000F007F907E00021384600F05FF80121C2
:104F1000384600F085F82B48A84312D1A089012813
:104F200011D02069B8B1E1696069415C384600F090
:104F3000F0F8E069401C00F07F00E0612069401E4D
:104F40002061BDE8F081A6816089C1B23846BDE824
:104F5000F04100F0DEB8B88A4007F2D53846BDE827
:104F6000F041012100F05CB8A80701D52662E66196
:104F700068060AD5384600F0C9F8226AA169885443
:104F8000206A401C00F07F0020620F48A8430BD12C
:104F9000E1696069415C384600F0BBF8E06900F106
:104FA000010000F07F00E061E806CAD50121384623
:104FB00000F016F80120E071C3E700004000002077
:104FC00040000100800005008000040000290188E5
:104FD00002D041F4806101E021F4806101807047DA
:104FE0000029018802D041F0010101E021F0010116
:104FF00001807047094910B588424FF0010101D185
:105000004C0501E04FF48004204600F0CDF9204625
:10501000BDE81040002100F0C7B900000054004076
:105020000029018802D041F4007101E021F40071EF
:1050300001807047818A008B41EA004121F07F4066
:105040007047002A828801D00A4300E08A438280A8
:105050007047000070B50446808886B00D4620F089
:105060003F06684600F006FA26490298B0FBF1F1C7
:1050700089B20E43A680228822F001022280224BB0
:105080002A689A421CD85200B0FBF2F080B2042881
:1050900000D20420491C2184A083208840F0010014
:1050A000208021884FF6F5300140A8886A89104396
:1050B00008432080A88929890843208106B070BD53
:1050C000EB88A3F53F46FF3E05D102EB4202B0FB61
:1050D000F2F080B208E002EBC20303EB0212B0FB75
:1050E000F2F080B240F48040020501D140F00100AE
:1050F0004FF4967251434FF47A72B1FBF2F140F4DF
:105100000040C7E740420F00A0860100008AC0B2FD
:1051100070470182704700000146044800B50068EE
:1051200000F0D6FA401C00D0012000BD1000002085
:105130000649CA880AB9FF2803D0C988401C8142A1
:1051400001D10120704700207047000006000020B8
:10515000A0F28540FF2801D8012070470020704749
:1051600010B50F4C6068FFF7D7FF002816D02078E5
:1051700048B1002121700B4800294FF0010104D0F3
:10518000FFF74EFD03E00121F4E7FFF747FD4FF481
:10519000FA7000F061FE61680844606010BD0000B4
:1051A000140000200008014008B50121042000F08F
:1051B00007F90120ADF8000003208DF8020010204F
:1051C0008DF8030069460248FFF7D6FC08BD0000D1
:1051D00000080140FEE7000010B5124C6068FFF7C0
:1051E0009BFF00281DD010490A8804F1080003889D
:1051F0009A4201D922781AB12278012A03D00AE012
:105200000120207005E009884088814203D20020F7
:10521000207000F031F8642000F01EFE6168084440
:10522000606010BD200000209002002038B51048BA
:10523000002401210470042000F0C2F82020ADF801
:10524000000003208DF8020010208DF8030069464D
:105250000848FFF791FC002000F00EF8044840F6E3
:105260003421083001804FF432714180047138BD1F
:105270002000002000080140044A01284FF02001CE
:10528000104601D0FFF7CCBCFFF7C8BC00080140B6
:10529000032902D04FF0FF307047044902780A71A9
:1052A000B0F8010040BA08800020704728000020B4
:1052B0007047000070B50F21C478027801234FF0C9
:1052C000E026DCB1124C246804F4E064C4F5E06428
:1052D000250AC5F10404E9404578A54084780C40CE
:1052E0002C4321010B4C1155007800F01F018B401D
:1052F000400906EB8000C0F8003170BD02F01F00CD
:105300008340500906EB8000C0F8803170BD00007A
:105310000CED00E000E400E00249084302490860A7
:10532000704700000000FA050CED00E0024A114051
:10533000014302480160704780FFFF1F08ED00E055
:10534000014908627047000000000E42704710B526
:10535000FFF72AFF00F002FAFFF768FFBDE81040F0
:10536000FFF72CBB034A516821F4404101435160CF
:105370007047000000100240044A0029516901D022
:10538000014300E08143516170470000001002407A
:10539000044A0029D16901D0014300E08143D16171
:1053A0007047000000100240044A0029116901D032
:1053B000014300E08143116170470000001002408A
:1053C000044A0029916901D0014300E081439161C1
:1053D000704700000010024010B500F029F80120CD
:1053E00000F0C6F8002000F0B9F8002000F0D0F876
:1053F0004FF4806000F0C2F84FF44021002000F02C
:10540000D7F8012000F0CEF8392000F087F8002806
:10541000FAD0022000F0D6F800F098F80828FBD166
:10542000BDE81040014800F025B800007C000020D5
:105430000D48016841F00101016041680B4A1140CB
:10544000416001680A4A11400160016821F480212D
:105450000160416821F4FE0141604FF41F01816049
:105460000021C16270470000001002400000FFF8F8
:10547000FFFFF6FE30B524494A68244B12F00C02B7
:1054800004D0234C042A03D0082A03D0036017E079
:10549000046015E04A684B6802F470124FF0020590
:1054A00013F4803F05EB924207D0CB6A03F00F0361
:1054B0005B1CB4FBF3F35343E8E7164B5A4302601B
:1054C0004A68154B02F0F00212099C5C0268E24047
:1054D00042604C6804F4E064240A1C5D22FA04F47F
:1054E00084604C6804F46054E40A1B5DDA40C260D6
:1054F0004968094B01F44041890B1B1F595CB2FB01
:10550000F1F1016130BD00000010024000127A008C
:10551000001BB70000093D006C000020024600207F
:1055200053090949012B0BD0022B0BD0D1F82410C1
:1055300002F01F02012393400B4200D0012070476C
:105540000968F5E7096AF3E700100240024840687D
:1055500000F00C007047000000100240034A516840
:1055600021F0F0010143516070470000001002403B
:10557000014908607047000000004242034A516838
:1055800021F4E061014351607047000000100240C7
:1055900003494A6822F4605242EAC00048607047FA
:1055A00000100240014908667047000000004242B6
:1055B000034A5368084323F4741318435060704738
:1055C00000100240034A516821F003010143516079
:1055D000704700000010024070470000134800218F
:1055E000026842F4803202604FF4A063026801F165
:1055F000010112F4003F01D19942F7D101688903FA
:1056000012D541684160416841604168416041682C
:1056100021F003014160416841F0010141604168AE
:10562000C1F381010129FAD1704700000010024046
:1056300010B586B001218DF8041000208DF80510FA
:105640004FF46021CDE90210009005201F4C8DF829
:10565000100069462046FFF72DF801220523114668
:105660002046FFF74BF80222052311462046FFF79C
:1056700045F80322052311462046FFF73FF805238E
:10568000042209212046FFF739F805231A4606218E
:105690002046FFF733F801212046FEF7F3FF0121F2
:1056A0002046FEF7E5FF2046FFF762F82046FEF7AA
:1056B000FAFF0028FAD12046FFF769F82046FEF7E6
:1056C000EBFF0028FAD106B010BD00000024014015
:1056D0004FF00043DA17884202D14FF000007047C4
:1056E00004D2A1EB0000984205D302E0401A984290
:1056F00001D2012070471046704700000148006841
:105700007047000010000020AFF3008002480168DD
:10571000491C016070470000100000200C48002167
:1057200001600C484FF47A724068B0FBF2F0B0F1BF
:10573000807F0BD220F07F424FF0E020521E42616A
:10574000054BF0221A70816107210161704700004A
:10575000100000207C00002023ED00E070B52C4DEF
:105760008CB000242C606C602C814E20ADF80000C1
:1057700003208DF802008DF8034069462548FFF7A5
:10578000FBF90220ADF8000069462348FFF7F4F961
:105790000020FFF7E7FD01210420FFF711FE0121A2
:1057A0000820FFF70DFE01214802FFF709FE012145
:1057B0000846FFF7E1FD194E3046FFF717F8184885
:1057C000CDE900050520CDE902408020CDE9044067
:1057D0004000069080000790202008900002CDE94C
:1057E000090469463046FFF773F8FFF721FF0121EE
:1057F0003046FEF7EFFF0A4C01214C3C2046FEF7F5
:1058000037FF0CB02046BDE870400121FEF7B5BF60
:105810009002002000080140000C014008000240F6
:105820004C2401407047000070B501214FF0C0507A
:10583000FFF7AEFD0120FFF783FDFEF7ADFF082067
:10584000FEF7B2FF0F4C18B9207820F0020020704C
:105850000D4A0D49121D0020096815884FF6FA728D
:1058600091420AD88AB24FF00061FFF7DBF9854216
:1058700003D1207820F004002070207820F0080068
:10588000207070BD04000020FAFF0008104810B519
:10589000016841F00101016041680E4A1140416018
:1058A00001680D4A11400160016821F48021016006
:1058B000416821F4FE0141604FF41F018160002125
:1058C000C162FFF78BFE05494FF00060086010BD14
:1058D000001002400000FFF8FFFFF6FE08ED00E0B8
:1058E00010B500F063F8002010BD000008B5FFF708
:1058F00073FD00F031F8FFF711FF00F05FFC00F0DE
:105900007DF800F051FB00F025FC0448C1680091CF
:105910000EC803A0FEF77EFC08BD00007C0000203E
:105920000D0A5B4D41494E5D20537973434C434B07
:105930003A2025642C2048434C4B3A2025642C20E7
:1059400050434C4B313A2025642C2050434C4B3271
:105950003A2025640000000038B54FF48041480328
:10596000FFF7E4FC4FF4A0652846FFF7D5FC25209F
:105970008DF8000001248DF8014002208DF802000E
:105980008DF803406846FFF795FC2846FFF7C4FCF6
:1059900012208DF800008DF8014003208DF80200E0
:1059A0008DF803406846FFF785FC38BD70B5642468
:1059B000084D03E0641E642000F01AFA288830B114
:1059C000012C02DA04A0FEF725FC002070BD002C9B
:1059D000F0D1F7E7900200200D0A5B4144435D20BF
:1059E00053797374656D2041444320436865636B4C
:1059F0002054696D656F75742100000030B52C4826
:105A000085B0002444808480C48001210481017019
:105A10000D0229462748FEF70DFD29462648FEF7C8
:105A200009FD009401940294012105200394FFF7DD
:105A3000C7FC01218803FFF7C3FC03208DF8120087
:105A4000A800ADF8100004201C4D8DF8130004A927
:105A50002846FFF791F86815ADF8100018208DF86A
:105A6000130004A92846FFF787F84FF4E130ADF89A
:105A700004400090ADF80640ADF80840ADF80C4089
:105A80000C200F4CADF80A006946204600F002F9E0
:105A9000012240F22551204600F0E3F80121204682
:105AA00000F0AFF807A0FEF7B5FB05B030BD000071
:105AB0000600002090000020900100200008014016
:105AC000003801400D0A5B554152545D205541524A
:105AD0005420496E69742052656164792E0000007B
:105AE00070B50C4C05462089FFF722FB0028FAD13F
:105AF00009482189FF29455402D2491C218101E02E
:105B000000202081BDE87040012240F22771034847
:105B100000F0A7B8060000209001002000380140E6
:105B20002DE9F0412C4E40F22551304600F07AF834
:105B30002A4C002568B3A288618829A0FEF76AFB79
:105B4000304600F001F90146A0882A4A0244401C70
:105B5000A0801170A088FF2802D9A580257001E0DF
:105B6000207850B9A0886188884206D3A088401C5C
:105B700060806088FF2800D965800821304600F0E9
:105B80004AF830B10821304600F038F8304600F0CD
:105B9000DBF840F227773946304600F043F800281A
:105BA00017D0E0882189884206D139463046BDE8C1
:105BB000F041002200F055B80F48E188415C3046C2
:105BC00000F0C6F8E088401CE080E088FF2800D99B
:105BD000E580BDE8F08100000038014006000020AB
:105BE0000D0A5B554152545D20733D256420653D8F
:105BF000256400009000002090010020C94301802E
:105C000070470029818902D041F4005101E021F45C
:105C10000051818170470246002012880A4200D05C
:105C20000120704770B501F01F0601220025C1F365
:105C3000421302FA06F4012B0FD0022B0FD0838AF5
:105C40004FEA11210088234202FA01F200EA020021
:105C500001D000B10125284670BD8389F0E7038A91
:105C6000EEE710B5C1F3421301F01F040121A1407A
:105C7000012B07D0022B07D01430002A026805D070
:105C80000A4304E00C30F8E71030F6E78A4302607C
:105C900010BD000030B50446008A85B00D464CF6B4
:105CA000FF710840E98801432182A1894EF6F31073
:105CB0000140A8882A8910436A890A431043A081B9
:105CC000A08A4FF6FF410840A9890143A182684696
:105CD000FFF7D0FB1B48844201D1039800E00298F3
:105CE000A1890904002900EBC00101EB001029681B
:105CF00002DA4FEA410101E04FEA8101B0FBF1F025
:105D00006422B0FBF2F14FEA01114FEA11136FF078
:105D100018056B4300EB8300A3891D044FF0320389
:105D200006D503EBC000B0FBF2F000F0070005E081
:105D300003EB0010B0FBF2F000F00F0008432081ED
:105D400005B030BD003801408088C0F308007047BE
:105D5000C1F3080181807047FEE7000010B5042000
:105D6000FEF722FDAA280AD0AA210420FEF722FD70
:105D700008A0FEF74FFABDE8104000F05BBA0F48EC
:105D8000017821F001010170BDE810400CA0FEF780
:105D900041BA00000D0A5B5741544348444F475DE8
:105DA000205761746368446F672077616974696E16
:105DB0006720726573746172742100000400002012
:105DC0000D0A5B5741544348444F475D2057617467
:105DD0006368446F67207265737461727421000098
:105DE00030380A2801D20120704700207047FEE7B2
:105DF00010B50446B0F1004F01D36FF00044FFF737
:105E00007DFC0444FFF77AFC2146FFF761FC401C4F
:105E1000F8D010BD10B50078AA280DD1AA21042011
:105E2000FEF7C8FC05480168054A01F4E06111432A
:105E30000160BFF3408FFEE710BD00000CED00E0F5
:105E40000400FA054FF0FF30704710B50446C0B2A9
:105E5000FFF746FE204610BD4FF47A714843B0FB71
:105E6000F1F070477FB50446012902D002290BD01A
:105E700014E03D4A22601F2262713C482022A27138
:105E8000C26862613A4A08E03A4A2260212262719D
:105E90002222A271384A6261803AA26100252171F2
:105EA000E561C8B22562012802D0022806D010E0C0
:105EB00032A0FEF7AFF90121480504E034A0FEF757
:105EC000A9F901218805FFF763FA01210820FFF7EE
:105ED00077FA204600F0AEF82068FFF78BF83148DB
:105EE00000904FF480406021ADF808100111ADF82A
:105EF0000450ADF80A10ADF80600ADF80C00694684
:105F00002068FFF7A7F801212068FFF769F84FF430
:105F1000A060FFF701FAA0798DF8000002258DF846
:105F200001508DF8025001268DF803606846FFF796
:105F3000C1F960798DF800008DF8015003208DF8CB
:105F400002008DF803606846FFF7B4F901224FF4B0
:105F5000C0612068FFF775F8012211022068FFF781
:105F600070F804B0002070BD0054004040000020D4
:105F70000403002000580040040400200A69326332
:105F80005F636C6B5F696E69743A6368310A000025
:105F90006932635F636C6B5F696E69743A63683220
:105FA0000A000000A0860100064810B500214170DB
:105FB0000170C2681180917001214068FFF752FFA3
:105FC000002010BD4000002010B50078430816489E
:105FD000052BC26841680BD2DFE803F00305071503
:105FE0000B00107802E0507800E090784969087062
:105FF00010BD0E4A138849691B0A0B70118840684E
:106000004069417010BD0A4A496913681B790B70D9
:106010001168436809885B69090A5970406811680A
:1060200040690988817010BD400000209002002066
:106030001C000020F8B500791C250224144E01280C
:1060400019D0022816D14002ADF800008DF8035097
:106050008DF8024069463046FEF78EFD5FEA8420E7
:10606000ADF800008DF803508DF8024069463046C7
:10607000FEF782FDF8BD4020ADF800008DF803501A
:106080008DF8024069463046FEF776FD8020E7E74E
:10609000000C014010B50A4C2069FFF73DF80028BC
:1060A0000CD020690A30206106480178E068017050
:1060B00005490978417005490978817010BD0000D3
:1060C0004000002058000020040000203000002084
:1060D000FFF70CFCFFF73BF9FEF772FB0BA20EA1DA
:1060E00010A0FEF797F8642000F082F8FFF774F82C
:1060F000FEF746FCFFF734F8FFF794FBFEF78EFC43
:10610000FFF7C8FF00F028F8EDE7000030393A3318
:10611000333A3535000000004D61722031372032AE
:10612000303134000D0A416C6C20496E204F6E6591
:1061300020426F6172642E20436F6D70696C652020
:10614000446174653A25732025732056302E362E0F
:10615000300000000020704710B5164C6068FEF754
:10616000DBFF002824D0002020701348C18809B12B
:1061700080212170418819B1217841F020012170DE
:10618000818819B1217841F010012170018819B17D
:10619000217841F004012170008918B1207840F085
:1061A000020020700A20FFF757FE61680844606013
:1061B00010BD0000580000209002002010B500F033
:1061C00003F8002010BD000008B501210420FFF7EE
:1061D000F7F81020ADF8000003218DF802108DF8BB
:1061E000030069460148FEF7C7FC08BD00080140EE
:1061F00070B50E4C05466068FEF78EFF00280ED085
:1062000021780B4800294FF0100109D0FEF706FD58
:10621000207840B10020207060682844606070BD24
:10622000FEF7FEFCF4E70120F5E700006000002027
:106230000008014010B54FF47A7402E00120FFF726
:10624000D7FD641EFAD203A0FDF7E4FF4FF0FF3044
:1062500010BD00000D0A5B5741544348444F475D51
:10626000205761746368646F67207265736574207A
:1062700074696D656F7574210000000010B5FEF73C
:10628000F3F94FF00001016010BD000001CC01D80E
:10629000001401F0003C002801E401A0006C00782B
:1062A00001B40050019C0188004404000008000073
:1062B000000000000002000100001000DC62000885
:1062C000000000207C0000005C41000858630008CA
:1062D0007C0000206C0A00007841000800000000EB
:1062E00000000000000000000000000000000000AE
:1062F0000000000000000000280000200000000056
:10630000000000000000000000000000000000008D
:106310009A020020000000000000000000000000C1
:10632000AC020020D8020020540000200000000031
:10633000000000000000000000000000000000005D
:10634000000000000204060800000000010203042F
:0863500001020304060708091D
:04000005080041218D
:00000001FF
